S014000050726F6A6563745F5461736B2E7372656347
S11300000C942A000C943F000C943F000C943F0085
S11300100C943F000C943F000C943F000C943F0060
S11300200C943F000C943F000C943F000C943F0050
S11300300C943F000C943F000C943F000C943F0040
S11300400C943F000C943F000C943F000C943F0030
S11300500C943F0011241FBECFE5D4E0DEBFCDBF1A
S113006010E0A0E6B0E0EEEDFDE002C005900D92D8
S1130070AE39B107D9F70E94E4020C94ED060C9452
S1130080000088BB80EC8BBB8FE097E20197F1F70F
S113009000C000008BB38F7B8BBB8FE097E201978E
S11300A0F1F700C00000089588BB80E48BBB83ECAB
S11300B099E00197F1F700C000008BB38F7B8BBBF5
S11300C083EC99E00197F1F700C00000089581E006
S11300D00E945400089580EC0E945400089580EC1E
S11300E08ABB8FEF87BB11BA80EF84BB83EC99E0A6
S11300F00197F1F700C0000081E00E9454008CE3F6
S11301000E9454008FE00E94540086E00E94540034
S11301108BB38F7B8BBB0895CF93DF93EC0103C02C
S11301200E944100219688818111FACFDF91CF91FD
S113013008950F931F93CF93DF93CDB7DEB7A7979F
S11301400FB6F894DEBF0FBECDBF29A33AA34BA3CD
S11301506DA37EA38FA30E9467002FA19EA18DA1F2
S11301601F922F931F929F931F928F9380E690E08C
S11301709F938F938E010F5F1F4F1F930F930E94C6
S1130180F303C8010E948C000E946B0029A19AA16C
S11301908BA11F922F931F929F931F928F9384E79B
S11301A090E09F938F93005F1F4F1F930F930E94C4
S11301B0F303C8010E948C000FB6F894DEBF0FBE93
S11301C0CDBFA7960FB6F894DEBF0FBECDBFDF91AB
S11301D0CF911F910F9108951F93CF93DF93D82F41
S11301E0192FC62F80EA0E94E701812F0E94210265
S11301F08D2F0E9421028C2F0E9421020E94410215
S1130200DF91CF911F910895CF93DF93CDB7DEB7E0
S113021027970FB6F894DEBF0FBECDBF29833A836C
S11302204B835C836D837E838F8381E090E00E94A7
S1130230EC008FE097E20197F1F700C000006B81BA
S113024082E090E00E94EC008FE097E20197F1F7E2
S113025000C000006E8183E090E00E94EC008FE01B
S113026097E20197F1F700C000006A8184E090E012
S11302700E94EC008FE097E20197F1F700C00000C4
S1130280698185E090E00E94EC008FE097E201979D
S1130290F1F700C000006C8186E090E00E94EC0061
S11302A08FE097E20197F1F700C000006F8187E0CB
S11302B090E00E94EC0027960FB6F894DEBF0FBEC4
S11302C0CDBFDF91CF910895CF93DF93C0E0D0E00D
S11302D00EC060E0CE010E94EC002FE986E891E0B8
S11302E0215080409040E1F700C000002196C830C2
S11302F0D1057CF3DF91CF910895CF93DF93C82F7D
S1130300D92F80EA0E94E7018D2F0E9421028C2FB1
S11303100E94210281EA0E9404020E943A02C82F2C
S11303200E9441028C2FDF91CF910895CF93DF93E8
S1130330EC0181E090E00E947D018C838FE097E2E4
S11303400197F1F700C0000082E090E00E947D0177
S11303508A838FE097E20197F1F700C0000083E001
S113036090E00E947D018D838FE097E20197F1F781
S113037000C0000084E090E00E947D0189838FE04A
S113038097E20197F1F700C0000085E090E00E9439
S11303907D0188838FE097E20197F1F700C00000A8
S11303A086E090E00E947D018B838FE097E20197C5
S11303B0F1F700C0000087E090E00E947D018E8389
S11303C0DF91CF91089511B88FEF80B9089594EA21
S11303D096BF06B607FEFDCF91B1987F983071F4B1
S11303E083B984E886BF06B607FEFDCF81B1887F56
S11303F0883131F0803231F482E0089580E008954C
S113040081E0089583E0089594EA96BF06B607FE56
S1130410FDCF91B1987F903171F483B984E886BFA0
S113042006B607FEFDCF81B1887F803431F0883471
S113043031F482E0089580E0089581E0089583E036
S1130440089583B984E886BF06B607FEFDCF81B15F
S1130450887F883221F0803321F481E0089580E0A0
S1130460089582E0089584EC86BF06B607FEFDCFAA
S113047083B1089584E886BF06B607FEFDCF83B135
S1130480089584E986BF06B604FCFDCF089511BA29
S113049080EF84BB089580EE85BB80B3803E59F025
S11304A080B3803D51F080B3803B49F080B3803706
S11304B041F484E0089581E0089582E0089583E0A2
S11304C0089580E0089580ED85BB80B3803E59F0A7
S11304D080B3803D51F080B3803B49F080B38037D6
S11304E041F488E0089585E0089586E0089587E062
S11304F0089580E0089580EB85BB80B3803E59F079
S113050080B3803D51F080B3803B49F080B38037A5
S113051041F48CE0089589E008958AE008958BE021
S1130520089580E0089580E785BB80B3803E59F04C
S113053080B3803D51F080B3803B49F080B3803775
S113054041F480E108958DE008958EE008958FE0F0
S1130550089580E008951F93CF93DF930E944B0288
S1130560182F2FEF39EF80E0215030408040E1F721
S113057000C000000E946302D82F9FEF29EF30E0F3
S1130580915020403040E1F700C000000E947B02FF
S1130590C82F8FEF99EF20E0815090402040E1F781
S11305A000C000000E9493023FEF99EF20E0315019
S11305B090402040E1F700C00000D12BCD2B8C2BC4
S11305C0DF91CF911F910895CF93DF93CDB7DEB71D
S11305D029970FB6F894DEBF0FBECDBF0E94470225
S11305E00E946F000E94E3010E94AB02182F4AE0B0
S11305F050E0BE01685F7F4F90E00E94C303112367
S113060099F31F3091F50E94670080E090E00E940A
S11306107D014AE050E0BE01685F7F4F90E00E9498
S1130620C303CE0101960E9496012FEF89EF90E05B
S1130630215080409040E1F700C00000CE010896B0
S11306400E948C002FE78AE196E021508040904080
S1130650E1F700C0000029813A814B815C816D8102
S11306607E818F810E949900BFCF103159F40E947E
S1130670670084E890E00E948C000E9464010E945C
S11306806700B2CF0E946700CE0108960E948C00DA
S1130690612F80E090E00E94EC002FEF89EF90E062
S11306A0215080409040E1F700C00000CE01019647
S11306B00E948C032FEF89EF90E0215080409040FE
S11306C0E1F700C00000CE0101960E94A6032FE7C7
S11306D08AE196E0215080409040E1F700C000009C
S11306E029813A814B815C816D817E818F810E9459
S11306F099002FEF89EF90E0215080409040E1F77E
S113070000C0000029813A814B815C816D817E812A
S11307108F810E94040168CFCF93DF93EC0180EDB9
S11307200E94E70180E00E94210281ED0E94040200
S11307300E94330288830E94330289830E943A0212
S11307408A830E944102DF91CF910895CF93DF9372
S1130750EC0180ED0E94E70183E00E94210281ED1B
S11307600E9404020E9433028B830E9433028C8312
S11307700E9433028D830E943A028E830E944102BA
S1130780DF91CF9108954532510520F4423010F0A5
S11307900C94CE03FB011082CB010895BB274A3091
S11307A031F4992322F4BDE2909581959F4F0C94E6
S11307B0DA03BB27FB015527AA27880F991FAA1F15
S11307C0A41710F0A41B83955051B9F7A05DAA3368
S11307D008F0A95DA193009779F7B111B193119233
S11307E0CB010C940C06AEE0B0E0E9EFF3E00C941E
S11307F0C4060D891E8986E08C831A8309838FEFD2
S11308009FE79E838D83AE01475E5F4F6F89788D2E
S1130810CE0101960E941504EF81F885E00FF11FC7
S113082010822E96E4E00C94E006ABE0B0E0EBE13D
S1130830F4E00C94B6066C017B018A01FC0117827A
S11308401682838181FFCCC1CE0101963C01F60161
S11308509381F70193FD859193FF81917F01882313
S113086009F4BAC1853239F493FD859193FF8191DE
S11308707F01853229F4B60190E00E941C06E7CF7F
S1130880912C212C312CFFE1F315D8F08B3279F027
S113089038F4803279F08332A1F4232D20611DC015
S11308A08D3261F0803369F4232D216016C0832DCD
S11308B08260382EE32DE4603E2E2AC0F32DF860CA
S11308C01DC037FC2DC020ED280F2A3040F08E3299
S11308D0B9F436FC81C1232D2064322E19C036FEB2
S11308E006C08AE0989E200D1124922E11C0EAE0E1
S11308F02E9E200D1124222EF32DF0623F2E08C0CF
S11309008C3621F4832D8068382E02C0883641F459
S1130910F70193FD859193FF81917F018111B3CFFD
S1130920982F9F7D9554933028F40C5F1F4F9FE3BD
S113093099830DC0833631F0833771F0833509F024
S113094059C021C0F801808189830E5F1F4F88241C
S11309508394912C530113C02801F2E04F0E511CD3
S1130960F801A080B18036FE03C0692D70E002C09A
S11309706FEF7FEFC5010E9401064C018201F32D48
S1130980FF773F2E16C0280122E0420E511CF801C9
S1130990A080B18036FE03C0692D70E002C06FEF05
S11309A07FEFC5010E94F6054C01F32DF0683F2E40
S11309B0820133FC1BC0822D90E088169906B0F4A6
S11309C0B60180E290E00E941C062A94F4CFF5015F
S11309D037FC859137FE81915F01B60190E00E945A
S11309E01C0621102A9421E0821A91088114910492
S11309F071F7E8C0843611F0893641F5F80137FE05
S1130A0007C060817181828193810C5F1F4F08C090
S1130A1060817181072E000C880B990B0E5F1F4FAC
S1130A20F32DFF763F2E97FF09C090958095709522
S1130A3061957F4F8F4F9F4FF0683F2E2AE030E043
S1130A40A3010E945806882E861845C0853731F4C4
S1130A50232D2F7EB22E2AE030E025C0932D997FDE
S1130A60B92E8F36C1F018F4883579F0B5C08037C7
S1130A7019F0883721F0B0C0E92FE061BE2EB4FE32
S1130A800DC0FB2DF460BF2E09C034FE0AC0292F0F
S1130A902660B22E06C028E030E005C020E130E038
S1130AA002C020E132E0F801B7FE07C06081718125
S1130AB0828193810C5F1F4F06C06081718180E049
S1130AC090E00E5F1F4FA3010E945806882E8618DF
S1130AD0FB2DFF773F2E36FE0DC0232D2E7FA22E39
S1130AE0891458F434FE0BC032FC09C0832D8E7E69
S1130AF0A82E05C0B82CA32C03C0B82C01C0B92C57
S1130B00A4FE0FC0FE01E80DF11D8081803321F4A5
S1130B109A2D997EA92E09C0A2FE06C0B394B3945F
S1130B2004C08A2D867809F0B394A3FC11C0A0FEFA
S1130B3006C0B21488F4280C922C9B180EC0B21470
S1130B4060F4B60180E290E00E941C06B394F7CFF3
S1130B50B21418F42B1802C0982C212CA4FE10C037
S1130B60B60180E390E00E941C06A2FE17C0A1FC1F
S1130B7003C088E790E002C088E590E0B6010CC0AD
S1130B808A2D867859F0A1FE02C08BE201C080E272
S1130B90A7FC8DE2B60190E00E941C06891438F48B
S1130BA0B60180E390E00E941C069A94F7CF8A94E1
S1130BB0F301E80DF11D8081B60190E00E941C064E
S1130BC08110F5CF222009F442CEB60180E290E0F4
S1130BD00E941C062A94F6CFF6018681978102C0F2
S1130BE08FEF9FEF2B96E2E10C94D206FC01059067
S1130BF0615070400110D8F7809590958E0F9F1F1B
S1130C000895FC016150704001900110D8F780955F
S1130C1090958E0F9F1F0895DC01FC01672F719141
S1130C207723E1F7329704C07C916D9370836291CE
S1130C30AE17BF07C8F308950F931F93CF93DF93A5
S1130C40FB01238121FD03C08FEF9FEF2CC022FF06
S1130C5016C046815781248135814217530744F4D5
S1130C60A081B1819D012F5F3F4F318320838C93FD
S1130C70268137812F5F3F4F3783268314C08B0132
S1130C80EC01FB010084F185E02D0995892BE1F647
S1130C90D80116968D919C911797019617969C935F
S1130CA08E931697CE01DF91CF911F910F910895E6
S1130CB0FA01AA27283051F1203181F1E8946F9389
S1130CC06E7F6E5F7F4F8F4F9F4FAF4FB1E03ED02F
S1130CD0B4E03CD0670F781F891F9A1FA11D680FCD
S1130CE0791F8A1F911DA11D6A0F711D811D911D00
S1130CF0A11D20D009F468943F912AE0269F112475
S1130D003019305D3193DEF6CF010895462F4770D8
S1130D10405D4193B3E00FD0C9F7F6CF462F4F7033
S1130D20405D4A3318F0495D31FD4052419302D091
S1130D30A9F7EACFB4E0A695979587957795679537
S1130D40BA95C9F700976105710508959B01AC0137
S1130D500A2E06945795479537952795BA95C9F75E
S1130D60620F731F841F951FA01D08952F923F9239
S1130D704F925F926F927F928F929F92AF92BF92A7
S1130D80CF92DF92EF92FF920F931F93CF93DF9353
S1130D90CDB7DEB7CA1BDB0B0FB6F894DEBF0FBEB0
S1130DA0CDBF09942A88398848885F846E847D84FD
S1130DB08C849B84AA84B984C884DF80EE80FD80FF
S1130DC00C811B81AA81B981CE0FD11D0FB6F89475
S1110DD0DEBF0FBECDBFED010895F894FFCF36
S1130DDE253032782F253032782F25303278202561
S1130DEE33732000253032783A253032783A253064
S1130DFE32782000436C65616E696E672074686595
S1110E0E20454550524F4D2021203A4300000C
S9030000FC
